:100000000C9434000C9451000C9451000C94510049
:100010000C9451000C9451000C9451000C9451001C
:100020000C9451000C9451000C9451000C94FE045B
:100030000C9451000C9451000C9451000C945100FC
:100040000C9451000C9457110C94FB110C9451001A
:100050000C9451000C9451000C9451000C945100DC
:100060000C9451000C94510011241FBECFEFD8E026
:10007000DEBFCDBF11E0A0E0B1E0E0ECFBE202C0EA
:1000800005900D92A435B107D9F728E0A4E5B1E0B9
:1000900001C01D92A836B207E1F70E948D150C949D
:1000A000DE150C940000CF93DF9300D0CDB7DEB700
:1000B0000E948E140E944A130E949B120E94AD144B
:1000C0000E94B5069A8389830E94C4140E948F14EB
:1000D0000E94C9126AE070E0CE0101960E94F90701
:1000E000F3CFCF93DF9300D0CDB7DEB70E9473126A
:1000F0000E94CC140E9485140E9423120E94B5060F
:100100009A8389830E94461268EC70E0CE010196C2
:100110000E94F907F7CF80915401882321F00E94B3
:10012000780F10925401089580915401811105C0F7
:100130000E947A0F81E08093540108951F93CF931A
:10014000DF93EC01142F4C8D4423C1F050E01111CA
:100150001DC08C819D810E94CE158C8D2C813D818E
:10016000820F932F911D9D838C832A813B8182175F
:10017000930720F0888199819D838C838A8D8F5F7E
:100180008A8F80E0DF91CF911F9108958E819F81AA
:100190000E94CE158C8D90E09195819591092E81CC
:1001A0003F81280F391F3F832E83488159812417AF
:1001B000350730F42A813B81820F931F9F838E8302
:1001C0001230E1F68A8D8823C9F28A8D81508A8F98
:1001D000D5CFFC01CB01448D4423A1F050E0268112
:1001E0003781240F351F3783268362817381261759
:1001F000370720F02081318137832683668177811C
:100200000C94CE1508950F931F93CF93DF93EC01B9
:100210000FB6F8940F928C010F5E1F4F8E8D18163B
:10022000B4F08FEF8E8F0F900FBE0FB6F8940F9231
:100230008E01085F1F4F8D8D1816B4F08FEF8D8FD4
:100240000F900FBEDF91CF911F910F910895898973
:10025000882339F3C8010E94BC0881110E946609F5
:100260008E8D81508E8FDACF8885882339F3C8012F
:100270000E94BC0881110E9466098D8D81508D8F6E
:10028000DACFCF93DF93EC010FB6F8940F92288169
:1002900039814C8D9B8D499FC0011124F901E80FD4
:1002A000F91FFB83EA831A8E3D832C83841B9109FB
:1002B000820F931F9F838E838FEF8D8F8E8F61119F
:1002C00011C08885882341F0CE0108960E94BC08A1
:1002D000813011F40E9449040F900FBE81E0DF913C
:1002E000CF910895CE0108960E94A60BCE014196AB
:1002F0000E94A60BF1CF0F931F93CF93DF93082F8C
:10030000162F90E080E0662321F0069FC0011124A3
:1003100001964F960E940105EC01009751F01111D2
:100320000EC0998388830B8F1C8F61E0CE010E94E1
:100330004101CE01DF91CF911F910F9108954F960A
:1003400099838883F0CFAF92BF92CF92DF92FF92D2
:100350000F931F93CF93DF9300D000D01F92CDB7A0
:10036000DEB78C016B015D834C83F22E80E0580177
:1003700098E0A90EB11C0FB6F8940F92F801228DE7
:10038000938D291718F0F2E0FF1226C04F2DB60109
:10039000C8010E949E00F80191899923D1F0C801FB
:1003A00041960E94BC08813011F40E9449040F90CC
:1003B0000FBE81E00F900F900F900F900F90DF9184
:1003C000CF911F910F91FF90DF90CF90BF90AF9092
:1003D0000895882361F3E9CF2C813D81232B21F4FB
:1003E0000F900FBE80E0E6CF811104C0CE010196D0
:1003F0000E942F090F900FBE0E94AF060FB6F8940F
:100400000F92F801858D8F3F09F4158EF801868DC6
:100410008F3F09F4168E0F900FBEBE016C5F7F4FA9
:10042000CE0101960E943A09811120C00FB6F894BE
:100430000F92F801928D0F900FBE838D981310C00C
:100440006C817D81C5010E947D08C8010E94030165
:100450000E948B07811102C00E94490481E08BCF6A
:10046000C8010E9403010E948B07F8CFC8010E94B7
:1004700003010E948B07B6CF0F931F93CF93DF9397
:10048000EC019A8D8B8D981718F080E02230C9F41A
:100490008A01422FCE010E949E008E8D8F3FB1F4C3
:1004A0008989811102C081E00CC0CE0141960E9471
:1004B000BC088823C1F301151105A9F381E0F801F7
:1004C0008083DF91CF911F910F9108958E8D8F5F63
:1004D0008E8FE9CFCF93DF93FC01928D838D981798
:1004E000E8F4828D8F5F828F868D8F3F99F48189AA
:1004F000811102C081E00BC0EB01CF0141960E9447
:10050000BC088823B9F32097A9F381E08883DF91A1
:10051000CF910895868D8F5F868FECCF80E0F7CFE7
:10052000AF92BF92DF92EF92FF920F931F93CF9300
:10053000DF9300D000D01F92CDB7DEB78C017B01D6
:100540005D834C83D22E80E0580191E1A90EB11C4D
:100550000FB6F8940F92F801928D9923A9F1A68015
:10056000B780B701C8010E94E900F801D11020C08E
:10057000828D8150828F8085882341F0C801089642
:100580000E94BC08813011F40E9449040F900FBEF4
:1005900081E00F900F900F900F900F90DF91CF910F
:1005A0001F910F91FF90EF90DF90BF90AF90089553
:1005B000B782A6828189882349F3C80141960E94A7
:1005C000BC08882319F3E0CF2C813D81232B21F433
:1005D0000F900FBE80E0DDCF811104C0CE010196E7
:1005E0000E942F090F900FBE0E94AF060FB6F8941D
:1005F0000F92F801858D8F3F09F4158EF801868DD5
:100600008F3F09F4168E0F900FBEBE016C5F7F4FB7
:10061000CE0101960E943A0981111FC00FB6F894CD
:100620000F92F801828D0F900FBE811110C06C8166
:100630007D81C5010E947D08C8010E9403010E94BE
:100640008B07811102C00E94490481E081CFC8015B
:100650000E9403010E948B07F8CFC8010E9403018A
:100660000E948B07B7CF0F931F93CF93DF93FC01AB
:10067000228D222321F18A01EC010E94E9008A8D5A
:1006800081508A8F8D8D8F3FB1F48885811102C092
:1006900081E00CC0CE0108960E94BC088823C1F3FB
:1006A00001151105A9F381E0F8018083DF91CF9155
:1006B0001F910F9108958D8D8F5F8D8FE9CF80E011
:1006C000F5CF0F931F93CF93DF93FC01228D22234D
:1006D00069F0EC01068117810E94E9001F830E83F7
:1006E00081E0DF91CF911F910F91089580E0F9CFC4
:1006F0000FB6F8940F92FC01828D0F900FBE0895F3
:100700000FB6F8940F92FC01228D0F900FBE838DCF
:10071000821B0895FC01828D08950C943605FC011E
:10072000928D81E0911180E00895FC01928D81E02D
:10073000238D291380E0089531E1FC013083319746
:1007400022E220833197A3E3A0833197608331971E
:10075000708331971082319760E8608331971082FF
:10076000319762E06083319763E06083319764E0A2
:100770006083319765E06083319766E060833197ED
:1007800067E06083319768E06083319769E0608358
:10079000319760E1608331973083319732E1308364
:1007A000319733E13083319734E13083319735E14C
:1007B0003083319736E13083319737E13083319799
:1007C00038E13083319739E13083319730E230833B
:1007D000319731E2308331972083319723E22083B0
:1007E0003197408331975083319726E220833197A8
:1007F00027E22083319728E22083319729E2208362
:10080000319720E32083319721E320838697089551
:100810008CE790E09093890080938800E0E8F0E016
:1008200080818C7F80838BE080938100EFE6F0E015
:10083000808182608083A0913507B0913607CD9189
:10084000CDBFDD91DEBFFF91EF91DF91CF91BF91E1
:10085000AF919F918F917F916F915F914F913F9158
:100860002F911F910F91FF90EF90DF90CF90BF904D
:10087000AF909F908F907F906F905F904F903F9040
:100880002F901F900F900FBE0F90089581E0089554
:1008900008950F920FB6F8940F921F9211242F9281
:1008A0003F924F925F926F927F928F929F92AF9200
:1008B000BF92CF92DF92EF92FF920F931F932F93ED
:1008C0003F934F935F936F937F938F939F93AF93D8
:1008D000BF93CF93DF93EF93FF93A0913507B09130
:1008E00036070DB60D920EB60D920E943308A091F8
:1008F0003507B0913607CD91CDBFDD91DEBFFF91B9
:10090000EF91DF91CF91BF91AF919F918F917F91A7
:100910006F915F914F913F912F911F910F91FF9098
:10092000EF90DF90CF90BF90AF909F908F907F908F
:100930006F905F904F903F902F901F900F900FBE41
:100940000F9008950F920FB6F8940F921F921124F2
:100950002F923F924F925F926F927F928F929F92CF
:10096000AF92BF92CF92DF92EF92FF920F931F93BD
:100970002F933F934F935F936F937F938F939F93A7
:10098000AF93BF93CF93DF93EF93FF93A09135077E
:10099000B09136070DB60D920EB60D920E94C706A5
:1009A00081110E943308A0913507B0913607CD918F
:1009B000CDBFDD91DEBFFF91EF91DF91CF91BF9170
:1009C000AF919F918F917F916F915F914F913F91E7
:1009D0002F911F910F91FF90EF90DF90CF90BF90DC
:1009E000AF909F908F907F906F905F904F903F90CF
:1009F0002F901F900F900FBE0F9008950E94A20499
:100A000018950F931F93CF93DF938C010E94AF062D
:100A10008091550190915601892B31F48AE591E03E
:100A200090935601809355012091570130915801C0
:100A3000020F131F0B3D85E01807A8F4201731079C
:100A400090F4C0915501D0915601C20FD31F10935D
:100A50005801009357010E948B07CE01DF91CF917F
:100A60001F910F910895D0E0C0E0F5CF0895109246
:100A70005801109257010895209157013091580163
:100A80008BED95E0821B930B0895FFCFCF93DF93FF
:100A9000E0913507F09136079383828320913E07DA
:100AA00030913F078217930770F46091350770917A
:100AB000360780914A0790914B076E5F7F4FDF9119
:100AC000CF910C94D80BEC016091350770913607EB
:100AD00080914C0790914D076E5F7F4F0E94D80B1D
:100AE0008091000190910101C817D90720F4D0939B
:100AF0000101C0930001DF91CF9108955F926F9241
:100B00007F928F929F92AF92BF92CF92DF92EF929D
:100B1000FF920F931F93CF93DF934C01162F572E05
:100B20005A013901C114D10439F4CA010E940105E6
:100B30006C01892B09F4BAC088E390E00E9401059A
:100B4000EC01009709F4AFC0D88ECF8A21E0A21A39
:100B5000B108CA0CDB1CE12FF52DAC01475E5F4FDD
:100B6000CF0149962191DA012D93AD019F012150CA
:100B70003109D9012C91222319F0E817F90791F7CF
:100B800019AA102F043008F013E01E8B5E01B2E0AA
:100B9000AB0EB11CC5010E94B40BCE010C960E9495
:100BA000B40BD987C88784E090E0811B91099D87A9
:100BB0008C87DB8BCA8B1AAA1BAA1CAA1DAA1FAA88
:100BC0001EAAA301B401C6010E949C0399838883D5
:100BD000E114F10419F0F701D183C0830FB6F89442
:100BE0000F92809140078F5F809340078091350777
:100BF00090913607892B09F06AC0D0933607C093CD
:100C0000350780914007813041F580E697E00E94EA
:100C1000A60B89E697E00E94A60B82E797E00E9468
:100C2000A60B8BE797E00E94A60B87E597E00E9452
:100C3000A60B8EE497E00E94A60B81E497E00E9449
:100C4000A60B87E597E090934D0780934C078EE4C1
:100C500097E090934B0780934A07809138078F5F06
:100C6000809338078E8990913D07981710F48093F0
:100C70003D07F9E08F9FC0011124B501805A984FBC
:100C80000E94B80B0F900FBE80913C07882349F05B
:100C9000E0913507F09136078689801710F40E949D
:100CA000490481E004C0C6010E9436058FEFDF9140
:100CB000CF911F910F91FF90EF90DF90CF90BF9059
:100CC000AF909F908F907F906F905F9008958091EC
:100CD0003C078111C2CFE0913507F0913607868934
:100CE000081708F4BACFD0933607C0933507B5CFAD
:100CF000AF92BF92CF92DF92EF92FF920F93B12CFF
:100D0000A12CD12CC12CF12CE12C00E030E020E012
:100D100045E550E06FE471E085E495E00E947E05D2
:100D2000813081F4F89480933C0710923F07109231
:100D30003E070F91FF90EF90DF90CF90BF90AF9064
:100D40000C9408040F91FF90EF90DF90CF90BF902C
:100D5000AF900895F89410923C070C944804809149
:100D600037078F5F8093370708950FB6F8940F9277
:100D700080913E0790913F070F900FBE089580919C
:100D80003E0790913F070895809140070895CF92C4
:100D9000DF92EF92FF920F931F93CF93DF93809197
:100DA00037078111B1C080913E0790913F070196AE
:100DB00090933F0780933E07E0903E07F0903F07F7
:100DC000E114F10411F580914C0790914D072091A9
:100DD0004A0730914B0730934D0720934C0790936F
:100DE0004B0780934A07809139078F5F80933907BB
:100DF000E0914C07F0914D07808181112BC08FEF5E
:100E00009FEF9093010180930001809100019091E8
:100E10000101C0E0E816F90650F5E0913507F091C0
:100E20003607E689B9E0EB9FF0011124E05AF84F4C
:100E30008081823008F0C1E080913A078111C1E0E1
:100E40008C2FDF91CF911F910F91FF90EF90DF904A
:100E5000CF900895E0914C07F0914D070580F68101
:100E6000E02D0680F781E02D82819381CACFD9E001
:100E7000E0914C07F0914D078081811107C08FEF01
:100E80009FEF9093010180930001C7CFE0914C0741
:100E9000F0914D070580F681E02D06811781D8017C
:100EA00012968D919C91E816F90658F36801B2E00C
:100EB000CB0ED11CC6010E940E0CF80184899589C5
:100EC000892B21F0C8010C960E940E0CD801569671
:100ED0008C9190913D07981710F480933D078D9F5A
:100EE000C0011124B601805A984F0E94B80BE091BE
:100EF0003507F0913607D80156969C918689981748
:100F000008F4B6CFC1E0B4CF80913B078F5F8093E8
:100F10003B07C0E091CFEF92FF920F931F93CF93C7
:100F2000DF930FB6F8940F9280913707815080932A
:100F3000370780913707882351F080E00F900FBE6C
:100F4000DF91CF911F910F91FF90EF9008958091C5
:100F50004007882391F389E0F82EEE24E3948091F2
:100F6000410781110DC080913B07C1E081113CC058
:100F700080913A07813009F70E94490481E0DECF71
:100F8000E0914607F0914707C681D781CE010C96C4
:100F90000E940E0C8E010E5F1F4FC8010E940E0CA6
:100FA0008E8990913D07981710F480933D078F9D8F
:100FB000C0011124B801805A984F0E94B80BE091EB
:100FC0003507F09136079E898689981740F2E0929E
:100FD0003A07C5CF0E94C7068111C0933A07809196
:100FE0003B07815080933B0780913B078111F2CFF3
:100FF000BFCF0F931F93CF93DF938C01EB010E9420
:10100000AF0620913E0730913F07F8018081918122
:10101000C80FD91F28173907B0F4C817D90768F0C7
:10102000D183C0830E948B07811102C00E944904B2
:10103000DF91CF911F910F910895D183C0832C1719
:101040003D0780F705C0D183C083C817D907B8F71B
:10105000809135079091360702960E940E0CCE01C2
:101060000E944605DFCF80913707882321F081E079
:1010700080933A07089510923A0749E0E0913D07BE
:101080004E9FF0011124E05AF84F8081882379F1B6
:1010900080913D0790E0489F9001499F300D1124B9
:1010A000F901E05AF84FA181B28112960D90BC91DE
:1010B000A02DB283A1832D59384FA217B30729F46D
:1010C00012962D913C913283218329E0289FF001D3
:1010D000299FF00D1124E05AF84F0180F281E02D94
:1010E0008681978190933607809335070895809184
:1010F0003D07815080933D07C1CFCF93DF93EB0134
:101100006091350770913607645F7F4F0E94D80B5E
:10111000809135079091360702960E940E0C8091BF
:101120003E0790913F078C0F9D1FDF91CF910C944C
:101130004605CF93DF93EA01E0913507F09136073A
:101140007068758764876091350770913607645FB2
:101150007F4F0E94B80B8091350790913607029619
:101160000E940E0C80913E0790913F078C0F9D1FAF
:10117000DF91CF910C9446050F931F93CF93DF938C
:10118000DC011596ED91FC91C681D7818E01045F3B
:101190001F4FC8010E940E0C80913707811125C096
:1011A0000A501109C8010E940E0C8E8990913D07CA
:1011B000981710F480933D07B9E08B9FC00111246C
:1011C000B801805A984F0E94B80BE0913507F09112
:1011D00036079E898689891760F481E080933A07F3
:1011E000DF91CF911F910F910895B80181E497E0AD
:1011F000EACF80E0F5CF0F931F93CF93DF93706812
:10120000FC0171836083C681D7810E940E0C8E0120
:101210000E5F1F4FC8010E940E0C8E8990913D07F2
:10122000981710F480933D07F9E08F9FC0011124B7
:10123000B801805A984F0E94B80BE0913507F091A1
:1012400036079E898689891740F481E080933A07A2
:10125000DF91CF911F910F91089580E0F9CF2091F8
:101260003907FC01208320913E0730913F073283EC
:10127000218308950FB6F8940F92E0913E07F09104
:101280003F0720913907DC0111964D915C9112972F
:101290003C91321719F0E417F507B0F4DB012D91FA
:1012A0003C91DF01A41BB50BA217B30768F42E1BFA
:1012B0003F0B240F351FFB01318320830E942F0930
:1012C00080E00F900FBE089581E0FBCF81E0809316
:1012D0003A070895E0913507F091360784859585A2
:1012E000A0913507B0913607E0913507F0913607A8
:1012F00056964C9124E030E0241B31093587248731
:1013000008951F93CF93DF93182FEB010FB6F89436
:101310000F92E0913507F091360782A993A9A4A90D
:10132000B5A9892B8A2B8B2BD9F4E0913507F09145
:10133000360781E090E097AB86AB209789F08091EB
:1013400035079091360702960E940E0C80913E0759
:1013500090913F078C0F9D1F0E9446050E944904F3
:101360000F900FBE0FB6F8940F92E0913507F091F1
:10137000360742A953A964A975A94115510561050C
:10138000710551F0E0913507F0913607112391F086
:1013900012AA13AA14AA15AAE0913507F0913607EC
:1013A00017AA16AA0F900FBECB01BA01DF91CF91F9
:1013B0001F91089582A993A9A4A9B5A90197A1098C
:1013C000B10982AB93ABA4ABB5ABE6CF4F925F92C2
:1013D0006F927F928F929F92AF92BF92EF92FF9205
:1013E0000F931F9349015A010FB6F8940F92E091A1
:1013F0003507F091360726A937A92230310581F14A
:10140000E0913507F091360742A853A864A875A863
:101410006095709580959095462257226822792292
:1014200042AA53AA64AA75AAE0913507F09136073B
:1014300081E090E097AB86ABE114F10489F08091F4
:1014400035079091360702960E940E0C80913E0758
:1014500090913F078E0D9F1D0E9446050E944904F2
:101460000F900FBE0FB6F8940F920115110569F099
:10147000E0913507F091360782A993A9A4A9B5A9EF
:10148000F80180839183A283B383E0913507F091C3
:10149000360786A997A9019751F1E0913507F09198
:1014A000360782A993A9A4A9B5A980949094A09481
:1014B000B09488219921AA21BB2182AB93ABA4AB24
:1014C000B5AB81E0E0913507F091360717AA16AA6F
:1014D0000F900FBE1F910F91FF90EF90BF90AF90B4
:1014E0009F908F907F906F905F904F90089580E0D5
:1014F000E9CF0F931F93CF93DF93FC010FB6F894BE
:101500000F92C6A9D7A982E090E097AB86AB2230B4
:10151000310551F168F421303105C9F0219761F1AD
:1015200081E00F900FBEDF91CF911F910F91089531
:101530002330310539F02430310581F780E0C230A5
:10154000D10579F342AB53AB64AB75ABE7CF82A95E
:1015500093A9A4A9B5A9842B952BA62BB72B82AB55
:1015600093ABA4ABB5ABDACF82A993A9A4A9B5A9D3
:101570000196A11DB11DF3CFEF018F010E5F1F4F2B
:10158000C8010E940E0C8E8990913D07981710F4A7
:1015900080933D0729E0829FC0011124B801805A41
:1015A000984F0E94B80BE0913507F09136079E895D
:1015B0008689891708F0B4CF0E944904B1CFEF9211
:1015C000FF920F931F93CF93DF93FC01C6A9D7A976
:1015D00082E090E097AB86AB2230310551F168F4A0
:1015E00021303105C9F0219761F181E0DF91CF9180
:1015F0001F910F91FF90EF9008952330310539F03E
:101600002430310581F780E0C230D10579F342AB57
:1016100053AB64AB75ABE7CF82A993A9A4A9B5A9D5
:10162000842B952BA62BB72B82AB93ABA4ABB5AB7E
:10163000DACF82A993A9A4A9B5A90196A11DB11DCC
:10164000F3CFEF0180913707811128C07F0122E09D
:10165000E20EF11CC7010E940E0C8E8990913D078D
:10166000981710F480933D07E9E08E9FC001112484
:10167000B701805A984F0E94B80BE0913507F0915E
:1016800036079E898689891708F0AFCF01151105A5
:1016900009F4ABCF81E0F8018083A8CFBF01645F7C
:1016A0007F4F81E497E0E7CFEF92FF920F931F9374
:1016B000CF93DF93EC012EA93FA982E090E09FAB8E
:1016C0008EAB8AA99BA9ACA9BDA90196A11DB11D8C
:1016D0008AAB9BABACABBDAB2130310551F58B0177
:1016E0008091370781112CC07E0122E0E20EF11CAF
:1016F000C7010E940E0C8E8990913D07981710F437
:1017000080933D07E9E08E9FC0011124B701805A04
:10171000984F0E94B80BE0913507F09136079E89EB
:101720008689891730F40115110519F081E0F80157
:101730008083DF91CF911F910F91FF90EF900895DB
:10174000BE01645F7F4F81E497E0E3CFFC01039625
:10175000928381832FEF3FEF3483238396838583A6
:101760009087878310820895FC0111861086089562
:10177000CF93DF939C01FB01DC011196CD91DC91AD
:10178000D383C2838C819D81958384838C819D8149
:10179000DC0113967C936E9312977D836C83318763
:1017A0002087F90180818F5F8083DF91CF91089539
:1017B0000F931F93CF93DF938C01FB018081918165
:1017C000D80113968F3F9807F1F4E801AF81B885EF
:1017D00012968D919C91139793838283EC01FD83E4
:1017E000EC83B583A4831396FC93EE931297118731
:1017F0000087F80180818F5F8083DF91CF911F91F7
:101800000F910895D90112962D913C911397E901FA
:101810004881598184179507A8F7DACFCF93DF93D2
:10182000FC01A085B1858281938124813581EC0101
:101830003D832C83C481D5819B838A8311968D91AE
:101840009C9112978E179F0721F41296DC93CE93EA
:101850001197118610868C9181508C93DF91CF91D6
:101860000895CF93DF938BE090E00E940105EC0197
:10187000009731F0FC0111921192CF010E94A60B4A
:10188000CE01DF91CF910895AF92BF92CF92DF92B8
:10189000EF92FF920F931F93CF93DF936C017B0125
:1018A000B42EA22E0E94AF06F601C081D181CE01D6
:1018B0008E219F21A11040C0892B09F041C0011544
:1018C000110589F070E060E0BB2011F060E071E08C
:1018D000A11074606E297F29A801C60102960E949A
:1018E0009908D0E0C0E00E948B07012BC9F081115C
:1018F00002C00E9449040E946A0991FD0FC00FB600
:10190000F8940F92F6018081918197012823392361
:10191000A11023C0232B21F50F900FBEEC01DD2772
:10192000CE01DF91CF911F910F91FF90EF90DF904B
:10193000CF90BF90AF900895E816F90609F0BFCF99
:10194000BB2041F0C701809590958C239D23F60123
:101950009183808310E000E0C6CFE216F306E1F643
:10196000BB20D1F2E094F094E822F922F601F18252
:10197000E082D2CFFC010FB6F8940F928081918162
:101980006095709568237923718360830F900FBEF3
:101990000895FC01808191810895CF92DF92EF92AA
:1019A000FF920F931F93CF93DF93EC018B017C0188
:1019B00085E0E80EF11C0E94AF06EF81F885688192
:1019C0007981602B712B7983688310E000E0688156
:1019D0007981EE15FF0599F40095109506231723DC
:1019E000198308830E948B0788819981DF91CF91A9
:1019F0001F910F91FF90EF90DF90CF900895C280DC
:101A0000D38020813181C9019927AC014623572316
:101A100032FD04C0452B29F4F601D9CF8417950770
:101A2000D9F730FF02C0082B192B7260CF010E943A
:101A3000FB08F2CFAF92BF92CF92DF92EF92FF926C
:101A40000F931F93CF93DF937C01EB018A01690110
:101A50000E94AF06F701A080B180BE01C7010E94BD
:101A6000CD0CCA29DB29CE01802391238017910751
:101A700009F03BC0F7018081918198012095309554
:101A80008223932391838083D12CC12C0E948B07C6
:101A9000CD28F9F0811102C00E9449040E946A0910
:101AA00091FD15C00FB6F8940F92F70180819181D6
:101AB0009801282339232017310739F4A8014095CC
:101AC000509548235923518340830F900FBEEC015A
:101AD000DD27CE01DF91CF911F910F91FF90EF9005
:101AE000DF90CF90BF90AF900895C114D10451F012
:101AF000A601B8017560C70102960E949908D0E05E
:101B0000C0E0C4CFF701C081D181C0CFCF93DF93B4
:101B1000EC010E94AF068A81811107C0CE010E94AC
:101B20003605DF91CF910C948B0760E072E08F81D6
:101B300098850E94FB08EFCFBA010C94CD0CBA0136
:101B40000C94BA0CCF92DF92EF92FF921F93CF9337
:101B5000DF936C01162FF42E8AE190E00E940105BC
:101B6000EC018FEF209709F456C080918407909183
:101B70008507892B21F5D0938507C09384078CEACC
:101B800097E00E94A60B85EB97E00E94A60B83EAE4
:101B900097E00E94A60B8AE997E00E94A60B8DE8C9
:101BA00097E00E94A60B83EA97E0909399078093B1
:101BB00098078AE997E09093970780939607111109
:101BC00011E0198E188E1E8BFF8AFE01C192D192F0
:101BD0007F01CF010E94B40BCE010C960E94B40B82
:101BE000D987C887DB8BCA8B82E090E0811B910983
:101BF0009D878C878E8990918C07981710F480931D
:101C00008C07F9E08F9FC0011124B7018455984FCC
:101C10000E94B80B81E0DF91CF911F91FF90EF9070
:101C2000DF90CF9008950F931F93CF93DF938B0195
:101C3000C0918A07D0918B07C80FD91F8091840764
:101C40009091850702960E940E0C60918407709116
:101C50008507FB01D383C28380918A0790918B070C
:101C60006E5F7F4FC817D907B0F4809196079091A7
:101C700097070E94D80B0115110591F06091840718
:101C800070918507645F7F4FC801DF91CF911F91ED
:101C90000F910C94D80B8091980790919907E9CFF8
:101CA000DF91CF911F910F910895FF920F931F9392
:101CB000CF93DF9399E0F92E80918D07811144C075
:101CC0000E94B5062091880730918907821B930BEB
:101CD000909387078093860789E0F82E20918607E6
:101CE0003091870780918A0790918B0721153105E4
:101CF00009F04CC0909389078093880780918C07E6
:101D0000282F30E099E0929FF001939FF00D11246D
:101D1000E455F84F408141118DC0882369F081500E
:101D2000282F30E0929FF001939FF00D1124E4558D
:101D3000F84F908191117EC080938C07DF91CF91F5
:101D40001F910F91FF900895F894E0919207F09100
:101D50009307C681D781CE010C960E940E0C789411
:101D60008E010E5F1F4FC8010E940E0C8E8990914C
:101D70008C07981710F480938C078F9DC001112455
:101D8000B8018455984F0E94B80B96CF0196909356
:101D90008B0780938A07215031093093870720935E
:101DA0008607892B81F4809198079091990720915B
:101DB000960730919707309399072093980790934F
:101DC000970780939607E0919807F09199072091E3
:101DD0008A0730918B078081882309F47FCF0580A3
:101DE000F681E02DC681D7818A819B81281739072A
:101DF00008F474CFF8948E010E5F1F4FC8010E9443
:101E00000E0C8C899D89892B21F0CE010C960E94A5
:101E10000E0C78948E8990918C07981710F480930B
:101E20008C078F9DC0011124B8018455984F0E94E2
:101E3000B80BC9CF80938C0749E0429FC001439FF4
:101E4000900D1124FC01E455F84FA181B281129646
:101E50000D90BC91A02DB283A1838155984FA817F6
:101E6000B90729F412968D919C919283818389E020
:101E7000829FF001839FF00D1124E455F84F0180FB
:101E8000F281E02D86819781909385078093840766
:101E9000DC01ED91FC91119757966C91DF91CF91F8
:101EA0001F910F91FF9009940F931F93CF93DF938E
:101EB000DC011596ED91FC91C681D7818E01045FFE
:101EC0001F4FC8010E940E0CB8018DE897E00E94D8
:101ED000B80BE0918407F091850781E02E899689FF
:101EE000291708F480E0DF91CF911F910F91089599
:101EF000F894089578940895AF92BF92CF92DF92AC
:101F0000EF92FF920F931F93FB01A8010E2DB12CAE
:101F1000A12CD12CC12CF12CE12C30E020E0BF0110
:101F20000E947E0591E0813009F090E0892F1F9199
:101F30000F91FF90EF90DF90CF90BF90AF900895FA
:101F4000ECECF7E01186128682EC97E097838683AB
:101F50008AE0808781E083870895E8EDF7E01082CA
:101F600081E08183128290E49383848308950895AD
:101F700008950895E1E4F8E080E895E2A0E0B0E09B
:101F800084879587A687B787168A8DED97E0918B12
:101F9000808B82E3828B2FE038E0348B238B858B20
:101FA00081E0878B0895E9E5F8E01082118281E0F5
:101FB00082830895ECE5F8E0148280E090EDA7E0DC
:101FC000B0E080839183A283B38381E08583089509
:101FD00080E00895CF93DF93A82FB0E096E0899F2B
:101FE000F0011124EE5FFE4FC081D1811882C281C1
:101FF000D3811882C481D5811882662331F1613082
:1020000059F186E08A9FF0018B9FF00D1124EE5F5D
:10201000FE4F0280F381E02D4083283019F12034F7
:1020200019F1213019F586E08A9FF0018B9FF00DA0
:102030001124EE5FFE4F0480F581E02D8081282B76
:10204000208380E0DF91CF9108950190F081E02D11
:10205000808182608083D5CF0190F081E02D8081E6
:102060008360F8CF22E0DFCF23E0DDCF20E0DBCFBD
:1020700096E0899FF0011124EE5FFE4F0280F3810C
:10208000E02D608380E00895611122C067E0869FA3
:10209000F0011124E85FFE4FA081B1814C9186814F
:1020A00021E030E0B90102C0660F771F8A95E2F7A0
:1020B000CB01809584238C93A281B3818C919681EE
:1020C00001C0220F9A95EAF7282B2C9380E00895FF
:1020D000613099F477E0879FF0011124E85FFE4FAB
:1020E000A081B1818C91968121E030E001C0220F66
:1020F0009A95EAF7822B8C93E9CF81E0089596E0D8
:10210000899FF0011124EA5EFE4FA081B1818C917C
:10211000958121E030E001C0220F9A95EAF7822BE9
:102120008C93A281B3818C919481892B8C9380E0D4
:102130000895A89584B7877F84BFE0E6F0E08081AA
:1021400088618083108280E00895A89584B7877F96
:1021500084BFE0E6F0E08081886180838081909197
:10216000BE07892B8860808380E0089541158AEF3F
:1021700058076105710509F443C0E0F440348FE16C
:1021800058076105710509F43FC038F4403A5F40D3
:1021900061057105D9F180E02FC040388EE3580702
:1021A0006105710579F141155D476105710599F783
:1021B00084E022C0411588EE580783E06807710566
:1021C000D1F038F44115544F6140710521F786E094
:1021D00013C0411580ED580787E06807710539F095
:1021E0004115504A6F407105B1F689E001C088E0A1
:1021F0008850806201C087E08093BE0780E0089528
:1022000085E0FACF83E0F8CF82E0F6CF81E0F4CF2B
:102210000C94B610A895089510926608109265085F
:10222000109264081092630880911C018F3F99F40A
:1022300010921C0184B18C6284B92A9A80E58CBD0D
:102240008CB580688CBD8CB582608CBD2A9810924C
:102250001D0180E0089581E0089580911C018F3F69
:1022600091F481E080931C017093C0076093BF07D5
:10227000249A80E48CBD8CB580688CBD8CB582605E
:102280008CBD80E0089581E0089580911D01811149
:102290000CC0509364084093630830936608209301
:1022A0006508F90110826EBD089582E008951F92BD
:1022B0000F920FB60F9211242F933F934F935F937A
:1022C0006F937F938F939F93AF93BF93EF93FF93FE
:1022D00080911C0181112EC00DB406FE27C08EB561
:1022E0008093670810926708E0916308F091640892
:1022F000309719F0809167088083E0916508F0912C
:10230000660881E0808310921D01FF91EF91BF91DB
:10231000AF919F918F917F916F915F914F913F917D
:102320002F910F900FBE0F901F9018958EB5809330
:102330006708DACF813049F76EB58091BF07909179
:10234000C0070E94FC14E1CFECE7F0E080818F77BA
:102350008083808180648083808180628083EAE7DB
:10236000F0E080818E7F80838081826080838081A5
:102370008460808380818068808380E0089590916C
:102380007A00892F807496FD15C090917C00907F13
:1023900090937C0090917C00E62FF0E0EF53F84F93
:1023A0002081922B90937C0090917A00906490937E
:1023B0007A00089582E008957093C5006093C40088
:1023C000E1ECF0E010828081806180838081886010
:1023D000808380818068808386E08093C20080E073
:1023E00008958091C00085FF04C06093C60080E01E
:1023F000089582E008951F920F920FB60F92112454
:102400002F933F934F935F936F937F938F939F93FC
:10241000AF93BF93EF93FF9341E066EC70E080E0F1
:102420000E943D13FF91EF91BF91AF919F918F91CA
:102430007F916F915F914F913F912F910F900FBEC0
:102440000F901F901895CF93DF9300D000D01F926C
:10245000CDB7DEB785E0E3E2F1E0DE011196019051
:102460000D928A95E1F76AEF80E00E94D41445E06E
:10247000BE016F5F7F4F80E00E94EB120F900F90C4
:102480000F900F900F90DF91CF910895CF93DF932E
:10249000CDB7DEB72B970FB6F894DEBF0FBECDBF1A
:1024A000BE016F5F7F4F8AE0FB0111928A95E9F7C9
:1024B0001B86AE01455F5F4F80E00E94B91381111A
:1024C00009C0EB85EE2331F0EC0FFD2FF11D60818B
:1024D0000E94D4142B960FB6F894DEBF0FBECDBF6A
:1024E000DF91CF910895CF93DF930E94AD0FC8ED98
:1024F000D7E02B814881698180E00E94EA0F8C83BC
:10250000DF91CF9108951F93CF93DF93982F85E0AC
:10251000989FE0011124C852D84F8C81811107C0C7
:10252000162F892F0E943810811101C01883DF9166
:10253000CF911F910895CF93DF930E94BA0FC1E40A
:10254000D8E06B897C894D8987E498E00E94F61475
:10255000688979894A89CE010E94F6142C853D85C7
:102560004E855F8584E0220F331F441F551F8A95D7
:10257000D1F760E072E18AE790E00E94AC15B90102
:102580006150710980E00E94DC118F8BDF91CF9147
:102590000895CF93DF931F92CDB7DEB71982809154
:1025A00058088130A1F0BE016F5F7F4F87E498E04B
:1025B0000E94671581110BC069810E94F111811180
:1025C00006C070E060E087E498E00E9445150F9037
:1025D000DF91CF910895CF93DF93982F28E1289F23
:1025E000E0011124CF5BD74F8F8981110AC082E0AF
:1025F0008F8B929FC0011124895B974F0E941D15FC
:102600008F8BDF91CF910895CF92DF92EF92FF925F
:102610000F931F93CF93DF93C8E1C89FF00111245C
:10262000EF5BF74FC788FA011082F1E0CF16D9F0BF
:102630008A017B018C9FE0011124CF5BD74FCE0133
:102640000E948615D12C882321F085E0C82E0BC06E
:10265000D394B7016D0D711DCE010E9445158823DD
:10266000B9F3F801D0828C2DDF91CF911F910F919A
:10267000FF90EF90DF90CF90089598E1989FF00140
:102680001124EF5BF74F2789211103C0CF010C9470
:102690001D1508950E94A00F6091D2077091D30775
:1026A0004091D4078CEC97E00E94F6148091D607F5
:1026B000811105C00E940C118093D70708958130C5
:1026C000E9F76CEC77E080E00E942D11F5CF8F9256
:1026D0009F92AF92BF92CF92DF92EF92FF920F93B1
:1026E0001F93CF93DF93082F10E09CE0899FF001A8
:1026F0001124E453F84F9285BB24B39491111AC06E
:10270000B384B11017C06A01A82E82E083877B01D1
:10271000C22FD0E0912C812C80911E018C169D0639
:10272000B9F48CE0809FF001819FF00D1124E453F7
:10273000F84F13868B2DDF91CF911F910F91FF9052
:10274000EF90DF90CF90BF90AF909F908F900895C3
:10275000882321F3F70161917F01A601480D591DDE
:102760002EE131E08A2D0E944511FFEF8F1A9F0A5A
:10277000D3CFDF92EF92FF920F931F93CF93DF930C
:102780009CE0989FE0011124C453D84F2A85DD2492
:10279000D394213089F48A017B01BA01CE010E94D1
:1027A0007C15D82E811108C0F801408150E06E815F
:1027B0007F81C7010E94CE158D2DDF91CF911F9192
:1027C0000F91FF90EF90DF900895CF93DF93CFE1CB
:1027D000D1E0688180E00E94441089836A8181E0B1
:1027E0000E9444108B83DF91CF91089590E0FC010B
:1027F000EE0FFF1FE15EFE4F2181211123C02081DA
:10280000211120C027E0289FF001299FF00D1124FD
:10281000E85FFE4FA481B5812C91468181E090E074
:10282000042E02C0880F991F0A94E2F730E0822339
:10283000932302C0959587954A95E2F7FB01808323
:1028400080E0089581E0089590E0FC01EE0FFF1F05
:10285000E15EFE4F2181211132C02081213079F5C6
:10286000611117C027E0289FF001299FF00D112466
:10287000E85FFE4FA281B3812C91368181E090E028
:1028800001C0880F3A95EAF7809582238C9380E007
:1028900008956130A1F427E0289FF001299FF00DF1
:1028A0001124E85FFE4FA281B3818C91968121E0D3
:1028B00030E001C0220F9A95EAF7822BE7CF81E042
:1028C000089590E0FC01EE0FFF1FE15EFE4F2181B5
:1028D000211119C020812130B1F427E0289FF00197
:1028E000299FF00D1124E85FFE4FA281B3818C91E6
:1028F000968121E030E001C0220F9A95EAF7822705
:102900008C9380E0089581E00895089581E0089512
:1029100081E0089581E0089581E008950895089583
:1029200081E00895CF93C82F0E94991097E0C99F26
:10293000F0011124E45AF74F1682CF910895CF93F6
:10294000C82F0E94A51097E0C99FF0011124E45AF6
:10295000F74F91E09683CF9108950E94DA0F40914E
:102960005C0850915D0860915E0870915F0880E09E
:102970000E94081180916208882319F080E00C946D
:102980009F1408950C94B61080916208882319F062
:1029900080E00C940A1108950E94D30F80E00E94F9
:1029A0007F1080935B08089590E0FC01EE0FFF1FFD
:1029B000E80FF91FE75AF74F8281811105C070E0D7
:1029C000808190E00E9483120895CF93DF93EC0101
:1029D0004A8150E070E060E0888199810E94D715BB
:1029E0001B821C821D82DF91CF910895FC017183AF
:1029F000608342830C94E514FC0182819581891BDC
:102A0000990B18161906BCF4A48180819181A80F36
:102A1000B92FB11D6C9385818F5F8583848122815D
:102A20002150330B821713061CF0148280E00895A6
:102A30008F5F8483FBCF84E00895EF92FF920F9322
:102A40001F93CF93DF93FC0122813581231B330B2E
:102A5000C42FD0E02C173D07B4F07C018B01C60FCA
:102A6000D71F0C171D0741F480E0DF91CF911F9114
:102A70000F91FF90EF900895F80161918F01C701C8
:102A80000E94FC14EECF84E0F0CFFC018581882306
:102A9000E1F06115710549F0A38180819181A80F52
:102AA000B92FB11D8C91DB018C9385818150858379
:102AB000838122812150330B821713061CF013826D
:102AC00080E008958F5F8383FBCF85E00895DC016C
:102AD00015968C911597882369F01396EC911397AE
:102AE0008D919C91E80FF92FF11D8081FB0180836E
:102AF00080E0089585E00895FC018581882321F018
:102B0000FB01808380E0089585E0089521E0FC01C9
:102B10008581811120E0822F089582E0E82E0DE169
:102B200011E020E030E04AE068E271E083E590E007
:102B30000E947C0FEE24E3940EE610E020E030E0EB
:102B400048EC6BE371E081E790E00E947C0F0E940B
:102B500094000E947806FFCFA1E21A2EAA1BBB1B8D
:102B6000FD010DC0AA1FBB1FEE1FFF1FA217B30759
:102B7000E407F50720F0A21BB30BE40BF50B661F6F
:102B8000771F881F991F1A9469F760957095809533
:102B900090959B01AC01BD01CF010895FB01DC01C3
:102BA00002C001900D9241505040D8F70895DC01C9
:102BB00001C06D9341505040E0F70895F894FFCF65
:102BC000FFFF440047004500240025002300002AA1
:102BD000002B002900042A0044008006FF010101A7
:102BE000010001494E49540A4F535F5461736B5FB2
:102BF00031306D735F5072696F32004F535F5461B3
:102C0000736B5F3230306D735F5072696F310049A2
:042C1000444C4500EB
:00000001FF
