:100000000C9434000C9451000C9451000C94510049
:100010000C9451000C9451000C9451000C9451001C
:100020000C9451000C9451000C9451000C94000558
:100030000C9451000C9451000C9451000C945100FC
:100040000C9451000C94B6110C945A120C9451005B
:100050000C9451000C9451000C9451000C945100DC
:100060000C9451000C94510011241FBECFEFD8E026
:10007000DEBFCDBF11E0A0E0B1E0E8E3F6E302C0EF
:1000800005900D92AC36B107D9F728E0ACE6B1E0A7
:1000900001C01D92AD39B207E1F70E94F1170C942F
:1000A0001A1B0C940000CF93DF9300D0CDB7DEB7BE
:1000B0000E94F2160E94BF140E9410140E94111791
:1000C0000E94B7069A8389830E9428170E94F3161C
:1000D0000E943E146AE070E0CE0101960E94FB0788
:1000E000F3CFCF93DF9300D0CDB7DEB70E94E813F4
:1000F0000E9430170E94BD160E94E5130E948212D2
:100100000E94B7069A8389830E94AD1268EC70E062
:10011000CE0101960E94FB07F7CF80916C018823E6
:1001200021F00E947A0F10926C01089580916C0169
:10013000811105C00E947C0F81E080936C010895BD
:100140001F93CF93DF93EC01142F4C8D4423C1F008
:1001500050E011111DC08C819D810E9432188C8D40
:100160002C813D81820F932F911D9D838C832A8149
:100170003B818217930720F0888199819D838C832E
:100180008A8D8F5F8A8F80E0DF91CF911F910895D4
:100190008E819F810E9432188C8D90E0919581957F
:1001A00091092E813F81280F391F3F832E8348817B
:1001B00059812417350730F42A813B81820F931F20
:1001C0009F838E831230E1F68A8D8823C9F28A8D4F
:1001D00081508A8FD5CFFC01CB01448D4423A1F0FF
:1001E00050E026813781240F351F378326836281B3
:1001F00073812617370720F02081318137832683CA
:10020000668177810C94321808950F931F93CF93D2
:10021000DF93EC010FB6F8940F928C010F5E1F4F25
:100220008E8D1816B4F08FEF8E8F0F900FBE0FB615
:10023000F8940F928E01085F1F4F8D8D1816B4F041
:100240008FEF8D8F0F900FBEDF91CF911F910F9188
:1002500008958989882339F3C8010E94BE08811155
:100260000E9468098E8D81508E8FDACF8885882311
:1002700039F3C8010E94BE0881110E9468098D8D62
:1002800081508D8FDACFCF93DF93EC010FB6F894C6
:100290000F92288139814C8D9B8D499FC00111247B
:1002A000F901E80FF91FFB83EA831A8E3D832C8343
:1002B000841B9109820F931F9F838E838FEF8D8FF5
:1002C0008E8F611111C08885882341F0CE01089678
:1002D0000E94BE08813011F40E944B040F900FBEA3
:1002E00081E0DF91CF910895CE0108960E94A80B7E
:1002F000CE0141960E94A80BF1CF0F931F93CF938D
:10030000DF93082F162F90E080E0662321F0069FF0
:10031000C001112401964F960E940305EC0100973D
:1003200051F011110EC0998388830B8F1C8F61E0EF
:10033000CE010E944301CE01DF91CF911F910F9119
:1003400008954F9699838883F0CFAF92BF92CF9252
:10035000DF92FF920F931F93CF93DF9300D000D0D3
:100360001F92CDB7DEB78C016B015D834C83F22EFB
:1003700080E0580198E0A90EB11C0FB6F8940F92D6
:10038000F801228D938D291718F0F2E0FF1226C094
:100390004F2DB601C8010E94A000F8019189992350
:1003A000D1F0C80141960E94BE08813011F40E942C
:1003B0004B040F900FBE81E00F900F900F900F90A5
:1003C0000F90DF91CF911F910F91FF90DF90CF9011
:1003D000BF90AF900895882361F3E9CF2C813D81D0
:1003E000232B21F40F900FBE80E0E6CF811104C0D3
:1003F000CE0101960E9431090F900FBE0E94B106F6
:100400000FB6F8940F92F801858D8F3F09F4158E81
:10041000F801868D8F3F09F4168E0F900FBEBE0136
:100420006C5F7F4FCE0101960E943C09811120C074
:100430000FB6F8940F92F801928D0F900FBE838D36
:10044000981310C06C817D81C5010E947F08C8018E
:100450000E9405010E948D07811102C00E944B0479
:1004600081E08BCFC8010E9405010E948D07F8CF63
:10047000C8010E9405010E948D07B6CF0F931F93FC
:10048000CF93DF93EC019A8D8B8D981718F080E055
:100490002230C9F48A01422FCE010E94A0008E8D25
:1004A0008F3FB1F48989811102C081E00CC0CE0177
:1004B00041960E94BE088823C1F301151105A9F3D6
:1004C00081E0F8018083DF91CF911F910F91089512
:1004D0008E8D8F5F8E8FE9CFCF93DF93FC01928D4E
:1004E000838D9817E8F4828D8F5F828F868D8F3F82
:1004F00099F48189811102C081E00BC0EB01CF0129
:1005000041960E94BE088823B9F32097A9F381E0A1
:100510008883DF91CF910895868D8F5F868FECCF92
:1005200080E0F7CFAF92BF92DF92EF92FF920F93EE
:100530001F93CF93DF9300D000D01F92CDB7DEB7CB
:100540008C017B015D834C83D22E80E0580191E1C8
:10055000A90EB11C0FB6F8940F92F801928D992351
:10056000A9F1A680B780B701C8010E94EB00F8018D
:10057000D11020C0828D8150828F8085882341F0E8
:10058000C80108960E94BE08813011F40E944B04F5
:100590000F900FBE81E00F900F900F900F900F9073
:1005A000DF91CF911F910F91FF90EF90DF90BF905F
:1005B000AF900895B782A6828189882349F3C80144
:1005C00041960E94BE08882319F3E0CF2C813D811B
:1005D000232B21F40F900FBE80E0DDCF811104C0EA
:1005E000CE0101960E9431090F900FBE0E94B10604
:1005F0000FB6F8940F92F801858D8F3F09F4158E90
:10060000F801868D8F3F09F4168E0F900FBEBE0144
:100610006C5F7F4FCE0101960E943C0981111FC083
:100620000FB6F8940F92F801828D0F900FBE8111D2
:1006300010C06C817D81C5010E947F08C8010E94A5
:1006400005010E948D07811102C00E944B0481E0C8
:1006500081CFC8010E9405010E948D07F8CFC80113
:100660000E9405010E948D07B7CF0F931F93CF9370
:10067000DF93FC01228D222321F18A01EC010E94EB
:10068000EB008A8D81508A8F8D8D8F3FB1F48885E4
:10069000811102C081E00CC0CE0108960E94BE0804
:1006A0008823C1F301151105A9F381E0F8018083C6
:1006B000DF91CF911F910F9108958D8D8F5F8D8F59
:1006C000E9CF80E0F5CF0F931F93CF93DF93FC0129
:1006D000228D222369F0EC01068117810E94EB0034
:1006E0001F830E8381E0DF91CF911F910F910895B9
:1006F00080E0F9CF0FB6F8940F92FC01828D0F9035
:100700000FBE08950FB6F8940F92FC01228D0F9042
:100710000FBE838D821B0895FC01828D08950C9479
:100720003805FC01928D81E0911180E00895FC0173
:10073000928D81E0238D291380E0089531E1FC0141
:100740003083319722E220833197A3E3A08331974E
:1007500060833197708331971082319760E86083AE
:1007600031971082319762E06083319763E0608354
:10077000319764E06083319765E06083319766E08C
:100780006083319767E06083319768E060833197D9
:1007900069E06083319760E16083319730833197FE
:1007A00032E13083319733E13083319734E1308364
:1007B000319735E13083319736E13083319737E136
:1007C0003083319738E13083319739E13083319785
:1007D00030E23083319731E2308331972083319793
:1007E00023E220833197408331975083319726E26B
:1007F0002083319727E22083319728E220833197A5
:1008000029E22083319720E32083319721E320835D
:10081000869708958CE790E09093890080938800F4
:10082000E0E8F0E080818C7F80838BE08093810022
:10083000EFE6F0E0808182608083A0914D07B09167
:100840004E07CD91CDBFDD91DEBFFF91EF91DF91DE
:10085000CF91BF91AF919F918F917F916F915F9158
:100860004F913F912F911F910F91FF90EF90DF904B
:10087000CF90BF90AF909F908F907F906F905F9040
:100880004F903F902F901F900F900FBE0F900895A4
:1008900081E0089508950F920FB6F8940F921F9279
:1008A00011242F923F924F925F926F927F928F927C
:1008B0009F92AF92BF92CF92DF92EF92FF920F93EF
:1008C0001F932F933F934F935F936F937F938F93D8
:1008D0009F93AF93BF93CF93DF93EF93FF93A09139
:1008E0004D07B0914E070DB60D920EB60D920E94B7
:1008F0003508A0914D07B0914E07CD91CDBFDD9148
:10090000DEBFFF91EF91DF91CF91BF91AF919F91AA
:100910008F917F916F915F914F913F912F911F9197
:100920000F91FF90EF90DF90CF90BF90AF909F908E
:100930008F907F906F905F904F903F902F901F907F
:100940000F900FBE0F9008950F920FB6F8940F926C
:100950001F9211242F923F924F925F926F927F923B
:100960008F929F92AF92BF92CF92DF92EF92FF92BF
:100970000F931F932F933F934F935F936F937F93A7
:100980008F939F93AF93BF93CF93DF93EF93FF9397
:10099000A0914D07B0914E070DB60D920EB60D9277
:1009A0000E94C90681110E943508A0914D07B0919F
:1009B0004E07CD91CDBFDD91DEBFFF91EF91DF916D
:1009C000CF91BF91AF919F918F917F916F915F91E7
:1009D0004F913F912F911F910F91FF90EF90DF90DA
:1009E000CF90BF90AF909F908F907F906F905F90CF
:1009F0004F903F902F901F900F900FBE0F90089533
:100A00000E94A40418950F931F93CF93DF938C013A
:100A10000E94B10680916D0190916E01892B31F495
:100A200082E791E090936E0180936D0120916F01B8
:100A300030917001020F131F0B3D85E01807A8F4D9
:100A40002017310790F4C0916D01D0916E01C20F53
:100A5000D31F1093700100936F010E948D07CE0188
:100A6000DF91CF911F910F910895D0E0C0E0F5CFB5
:100A700008951092700110926F01089520916F01F6
:100A8000309170018BED95E0821B930B0895FFCFA1
:100A9000CF93DF93E0914D07F0914E0793838283CC
:100AA00020915607309157078217930770F4609191
:100AB0004D0770914E0780916207909163076E5FBA
:100AC0007F4FDF91CF910C94DA0BEC0160914D07D1
:100AD00070914E0780916407909165076E5F7F4F1C
:100AE0000E94DA0B8091000190910101C817D9078B
:100AF00020F4D0930101C0930001DF91CF910895BC
:100B00005F926F927F928F929F92AF92BF92CF929D
:100B1000DF92EF92FF920F931F93CF93DF934C01DD
:100B2000162F572E5A013901C114D10439F4CA01C4
:100B30000E9403056C01892B09F4BAC088E390E098
:100B40000E940305EC01009709F4AFC0D88ECF8A4C
:100B500021E0A21AB108CA0CDB1CE12FF52DAC0173
:100B6000475E5F4FCF0149962191DA012D93AD0188
:100B70009F0121503109D9012C91222319F0E81746
:100B8000F90791F719AA102F043008F013E01E8B13
:100B90005E01B2E0AB0EB11CC5010E94B60BCE01E6
:100BA0000C960E94B60BD987C88784E090E0811B21
:100BB00091099D878C87DB8BCA8B1AAA1BAA1CAA5A
:100BC0001DAA1FAA1EAAA301B401C6010E949E036A
:100BD00099838883E114F10419F0F701D183C0836C
:100BE0000FB6F8940F92809158078F5F8093580743
:100BF00080914D0790914E07892B09F06AC0D093E0
:100C00004E07C0934D0780915807813041F588E722
:100C100097E00E94A80B81E897E00E94A80B8AE861
:100C200097E00E94A80B83E997E00E94A80B8FE64B
:100C300097E00E94A80B86E697E00E94A80B89E542
:100C400097E00E94A80B8FE697E09093650780934A
:100C5000640786E697E0909363078093620780912C
:100C600050078F5F809350078E8990915507981792
:100C700010F480935507F9E08F9FC0011124B5014E
:100C80008858984F0E94BA0B0F900FBE809154075E
:100C9000882349F0E0914D07F0914E07868980172F
:100CA00010F40E944B0481E004C0C6010E94380584
:100CB0008FEFDF91CF911F910F91FF90EF90DF9019
:100CC000CF90BF90AF909F908F907F906F905F90EC
:100CD0000895809154078111C2CFE0914D07F091A2
:100CE0004E078689081708F4BACFD0934E07C093F1
:100CF0004D07B5CFAF92BF92CF92DF92EF92FF92A6
:100D00000F93B12CA12CD12CC12CF12CE12C00E0A3
:100D100030E020E045E550E063E671E087E495E0EF
:100D20000E948005813081F4F894809354071092DA
:100D30005707109256070F91FF90EF90DF90CF90DA
:100D4000BF90AF900C940A040F91FF90EF90DF904A
:100D5000CF90BF90AF900895F894109254070C94E0
:100D60004A0480914F078F5F80934F0708950FB615
:100D7000F8940F9280915607909157070F900FBEED
:100D800008958091560790915707089580915807CC
:100D90000895CF92DF92EF92FF920F931F93CF931C
:100DA000DF9380914F078111B1C0809156079091D8
:100DB000570701969093570780935607E090560780
:100DC000F0905707E114F10411F5809164079091B8
:100DD0006507209162073091630730936507209380
:100DE00064079093630780936207809151078F5F38
:100DF00080935107E0916407F0916507808181112C
:100E00002BC08FEF9FEF90930101809300018091A1
:100E1000000190910101C0E0E816F90650F5E0915B
:100E20004D07F0914E07E689B9E0EB9FF0011124E0
:100E3000E858F84F8081823008F0C1E08091520775
:100E40008111C1E08C2FDF91CF911F910F91FF9005
:100E5000EF90DF90CF900895E0916407F0916507DF
:100E60000580F681E02D0680F781E02D8281938157
:100E7000CACFD9E0E0916407F091650780818111C4
:100E800007C08FEF9FEF9093010180930001C7CFC0
:100E9000E0916407F09165070580F681E02D0681F9
:100EA0001781D80112968D919C91E816F90658F396
:100EB0006801B2E0CB0ED11CC6010E94100CF801F3
:100EC00084899589892B21F0C8010C960E94100C09
:100ED000D80156968C9190915507981710F48093ED
:100EE00055078D9FC0011124B6018858984F0E9464
:100EF000BA0BE0914D07F0914E07D80156969C91A0
:100F00008689981708F4B6CFC1E0B4CF8091530713
:100F10008F5F80935307C0E091CFEF92FF920F93C2
:100F20001F93CF93DF930FB6F8940F9280914F07E2
:100F3000815080934F0780914F07882351F080E0C4
:100F40000F900FBEDF91CF911F910F91FF90EF9007
:100F5000089580915807882391F389E0F82EEE24B4
:100F6000E3948091590781110DC080915307C1E02E
:100F700081113CC080915207813009F70E944B04D7
:100F800081E0DECFE0915E07F0915F07C681D781F7
:100F9000CE010C960E94100C8E010E5F1F4FC801EF
:100FA0000E94100C8E8990915507981710F4809329
:100FB00055078F9DC0011124B8018858984F0E9491
:100FC000BA0BE0914D07F0914E079E8986899817DC
:100FD00040F2E0925207C5CF0E94C9068111C0932A
:100FE0005207809153078150809353078091530794
:100FF0008111F2CFBFCF0F931F93CF93DF938C015B
:10100000EB010E94B1062091560730915707F80175
:1010100080819181C80FD91F28173907B0F4C817EC
:10102000D90768F0D183C0830E948D07811102C067
:101030000E944B04DF91CF911F910F910895D183AE
:10104000C0832C173D0780F705C0D183C083C81724
:10105000D907B8F780914D0790914E0702960E94EC
:10106000100CCE010E944805DFCF80914F078823E6
:1010700021F081E08093520708951092520749E0D1
:10108000E09155074E9FF0011124E858F84F8081F8
:10109000882379F18091550790E0489F9001499FFE
:1010A000300D1124F901E858F84FA181B281129650
:1010B0000D90BC91A02DB283A1832558384FA21763
:1010C000B30729F412962D913C913283218329E0B4
:1010D000289FF001299FF00D1124E858F84F018056
:1010E000F281E02D8681978190934E0780934D0782
:1010F000089580915507815080935507C1CFCF93B4
:10110000DF93EB0160914D0770914E07645F7F4F55
:101110000E94DA0B80914D0790914E0702960E9433
:10112000100C80915607909157078C0F9D1FDF91EF
:10113000CF910C944805CF93DF93EA01E0914D07DE
:10114000F0914E0770687587648760914D077091C4
:101150004E07645F7F4F0E94BA0B80914D079091BC
:101160004E0702960E94100C8091560790915707E7
:101170008C0F9D1FDF91CF910C9448050F931F9307
:10118000CF93DF93DC011596ED91FC91C681D78159
:101190008E01045F1F4FC8010E94100C80914F0701
:1011A000811125C00A501109C8010E94100C8E89B6
:1011B00090915507981710F480935507B9E08B9FCD
:1011C000C0011124B8018858984F0E94BA0BE091D1
:1011D0004D07F0914E079E898689891760F481E05A
:1011E00080935207DF91CF911F910F910895B8011D
:1011F00089E597E0EACF80E0F5CF0F931F93CF9377
:10120000DF937068FC0171836083C681D7810E947F
:10121000100C8E010E5F1F4FC8010E94100C8E89AA
:1012200090915507981710F480935507F9E08F9F18
:10123000C0011124B8018858984F0E94BA0BE09160
:101240004D07F0914E079E898689891740F481E009
:1012500080935207DF91CF911F910F91089580E005
:10126000F9CF20915107FC0120832091560730913E
:1012700057073283218308950FB6F8940F92E091B7
:101280005607F091570720915107DC0111964D91B7
:101290005C9112973C91321719F0E417F507B0F4FE
:1012A000DB012D913C91DF01A41BB50BA217B30705
:1012B00068F42E1B3F0B240F351FFB013183208365
:1012C0000E94310980E00F900FBE089581E0FBCFAE
:1012D00081E0809352070895E0914D07F0914E0709
:1012E00084859585A0914D07B0914E07E0914D07FB
:1012F000F0914E0756964C9124E030E0241B3109C2
:101300003587248708951F93CF93DF93182FEB0120
:101310000FB6F8940F92E0914D07F0914E0782A915
:1013200093A9A4A9B5A9892B8A2B8B2BD9F4E09179
:101330004D07F0914E0781E090E097AB86AB209788
:1013400089F080914D0790914E0702960E94100CF3
:1013500080915607909157078C0F9D1F0E9448055A
:101360000E944B040F900FBE0FB6F8940F92E091BD
:101370004D07F0914E0742A953A964A975A94115DB
:1013800051056105710551F0E0914D07F0914E074F
:10139000112391F012AA13AA14AA15AAE0914D07DD
:1013A000F0914E0717AA16AA0F900FBECB01BA01F3
:1013B000DF91CF911F91089582A993A9A4A9B5A9FE
:1013C0000197A109B10982AB93ABA4ABB5ABE6CF52
:1013D0004F925F926F927F928F929F92AF92BF9245
:1013E000EF92FF920F931F9349015A010FB6F894A1
:1013F0000F92E0914D07F0914E0726A937A92230B0
:10140000310581F1E0914D07F0914E0742A853A8B4
:1014100064A875A86095709580959095462257228E
:101420006822792242AA53AA64AA75AAE0914D07BC
:10143000F0914E0781E090E097AB86ABE114F104A8
:1014400089F080914D0790914E0702960E94100CF2
:1014500080915607909157078E0D9F1D0E94480559
:101460000E944B040F900FBE0FB6F8940F92011517
:10147000110569F0E0914D07F0914E0782A993A9FB
:10148000A4A9B5A9F80180839183A283B383E091D5
:101490004D07F0914E0786A997A9019751F1E09168
:1014A0004D07F0914E0782A993A9A4A9B5A98094EC
:1014B0009094A094B09488219921AA21BB2182AB59
:1014C00093ABA4ABB5AB81E0E0914D07F0914E0733
:1014D00017AA16AA0F900FBE1F910F91FF90EF90C1
:1014E000BF90AF909F908F907F906F905F904F9044
:1014F000089580E0E9CF0F931F93CF93DF93FC0112
:101500000FB6F8940F92C6A9D7A982E090E097ABE6
:1015100086AB2230310551F168F421303105C9F034
:10152000219761F181E00F900FBEDF91CF911F9164
:101530000F9108952330310539F02430310581F7BA
:1015400080E0C230D10579F342AB53AB64AB75ABED
:10155000E7CF82A993A9A4A9B5A9842B952BA62B83
:10156000B72B82AB93ABA4ABB5ABDACF82A993A96F
:10157000A4A9B5A90196A11DB11DF3CFEF018F015B
:101580000E5F1F4FC8010E94100C8E899091550765
:10159000981710F48093550729E0829FC001112409
:1015A000B8018858984F0E94BA0BE0914D07F0910E
:1015B0004E079E898689891708F0B4CF0E944B0494
:1015C000B1CFEF92FF920F931F93CF93DF93FC0164
:1015D000C6A9D7A982E090E097AB86AB223031054F
:1015E00051F168F421303105C9F0219761F181E0B2
:1015F000DF91CF911F910F91FF90EF9008952330CD
:10160000310539F02430310581F780E0C230D10551
:1016100079F342AB53AB64AB75ABE7CF82A993A927
:10162000A4A9B5A9842B952BA62BB72B82AB93AB82
:10163000A4ABB5ABDACF82A993A9A4A9B5A90196A9
:10164000A11DB11DF3CFEF0180914F07811128C07B
:101650007F0122E0E20EF11CC7010E94100C8E896E
:1016600090915507981710F480935507E9E08E9FE5
:10167000C0011124B7018858984F0E94BA0BE0911D
:101680004D07F0914E079E898689891708F0AFCFE4
:101690000115110509F4ABCF81E0F8018083A8CFD3
:1016A000BF01645F7F4F89E597E0E7CFEF92FF923C
:1016B0000F931F93CF93DF93EC012EA93FA982E0F4
:1016C00090E09FAB8EAB8AA99BA9ACA9BDA901965E
:1016D000A11DB11D8AAB9BABACABBDAB21303105BD
:1016E00051F58B0180914F0781112CC07E0122E0C2
:1016F000E20EF11CC7010E94100C8E8990915507D3
:10170000981710F480935507E9E08E9FC0011124CB
:10171000B7018858984F0E94BA0BE0914D07F0919D
:101720004E079E898689891730F40115110519F035
:1017300081E0F8018083DF91CF911F910F91FF909D
:10174000EF900895BE01645F7F4F89E597E0E3CF96
:10175000FC010396928381832FEF3FEF3483238331
:10176000968385839087878310820895FC01118674
:1017700010860895CF93DF939C01FB01DC01119645
:10178000CD91DC91D383C2838C819D8195838483A9
:101790008C819D81DC0113967C936E9312977D83DF
:1017A0006C8331872087F90180818F5F8083DF918F
:1017B000CF9108950F931F93CF93DF938C01FB017B
:1017C00080819181D80113968F3F9807F1F4E80149
:1017D000AF81B88512968D919C91139793838283E4
:1017E000EC01FD83EC83B583A4831396FC93EE9305
:1017F000129711870087F80180818F5F8083DF91C6
:10180000CF911F910F910895D90112962D913C917E
:101810001397E9014881598184179507A8F7DACF12
:10182000CF93DF93FC01A085B185828193812481D0
:101830003581EC013D832C83C481D5819B838A83D0
:1018400011968D919C9112978E179F0721F41296F5
:10185000DC93CE931197118610868C9181508C93D6
:10186000DF91CF910895CF93DF938BE090E00E94BA
:101870000305EC01009731F0FC0111921192CF01A8
:101880000E94A80BCE01DF91CF910895AF92BF9235
:10189000CF92DF92EF92FF920F931F93CF93DF933C
:1018A0006C017B01B42EA22E0E94B106F601C0810C
:1018B000D181CE018E219F21A11040C0892B09F03A
:1018C00041C00115110589F070E060E0BB2011F006
:1018D00060E071E0A11074606E297F29A801C60143
:1018E00002960E949B08D0E0C0E00E948D07012B69
:1018F000C9F0811102C00E944B040E946C0991FD45
:101900000FC00FB6F8940F92F60180819181970174
:1019100028233923A11023C0232B21F50F900FBEBC
:10192000EC01DD27CE01DF91CF911F910F91FF9048
:10193000EF90DF90CF90BF90AF900895E816F90632
:1019400009F0BFCFBB2041F0C701809590958C2353
:101950009D23F6019183808310E000E0C6CFE2165C
:10196000F306E1F6BB20D1F2E094F094E822F922EC
:10197000F601F182E082D2CFFC010FB6F8940F920B
:10198000808191816095709568237923718360834C
:101990000F900FBE0895FC01808191810895CF9230
:1019A000DF92EF92FF920F931F93CF93DF93EC019F
:1019B0008B017C0185E0E80EF11C0E94B106EF81ED
:1019C000F88568817981602B712B7983688310E0B9
:1019D00000E068817981EE15FF0599F40095109576
:1019E00006231723198308830E948D078881998114
:1019F000DF91CF911F910F91FF90EF90DF90CF90EB
:101A00000895C280D38020813181C9019927AC011A
:101A10004623572332FD04C0452B29F4F601D9CFC4
:101A200084179507D9F730FF02C0082B192B726075
:101A3000CF010E94FD08F2CFAF92BF92CF92DF920A
:101A4000EF92FF920F931F93CF93DF937C01EB01F3
:101A50008A0169010E94B106F701A080B180BE0130
:101A6000C7010E94CF0CCA29DB29CE018023912314
:101A70008017910709F03BC0F7018081918198019F
:101A8000209530958223932391838083D12CC12C80
:101A90000E948D07CD28F9F0811102C00E944B04ED
:101AA0000E946C0991FD15C00FB6F8940F92F701D2
:101AB000808191819801282339232017310739F437
:101AC000A8014095509548235923518340830F9096
:101AD0000FBEEC01DD27CE01DF91CF911F910F9159
:101AE000FF90EF90DF90CF90BF90AF900895C1141A
:101AF000D10451F0A601B8017560C70102960E9499
:101B00009B08D0E0C0E0C4CFF701C081D181C0CF35
:101B1000CF93DF93EC010E94B1068A81811107C047
:101B2000CE010E943805DF91CF910C948D0760E0C3
:101B300072E08F8198850E94FD08EFCFBA010C9466
:101B4000CF0CBA010C94BC0CCF92DF92EF92FF92B3
:101B50001F93CF93DF936C01162FF42E8AE190E050
:101B60000E940305EC018FEF209709F456C0809185
:101B70009C0790919D07892B21F5D0939D07C093D9
:101B80009C0784EC97E00E94A80B8DEC97E00E94E4
:101B9000A80B8BEB97E00E94A80B82EB97E00E94CA
:101BA000A80B85EA97E00E94A80B8BEB97E0909337
:101BB000B1078093B00782EB97E09093AF078093D3
:101BC000AE07111111E0198E188E1E8BFF8AFE01CF
:101BD000C192D1927F01CF010E94B60BCE010C962B
:101BE0000E94B60BD987C887DB8BCA8B82E090E056
:101BF000811B91099D878C878E899091A4079817E6
:101C000010F48093A407F9E08F9FC0011124B7015D
:101C10008C53984F0E94BA0B81E0DF91CF911F91B6
:101C2000FF90EF90DF90CF9008950F931F93CF9385
:101C3000DF938B01C091A207D091A307C80FD91FD2
:101C400080919C0790919D0702960E94100C6091D4
:101C50009C0770919D07FB01D383C2838091A207EB
:101C60009091A3076E5F7F4FC817D907B0F480919A
:101C7000AE079091AF070E94DA0B0115110591F0A4
:101C800060919C0770919D07645F7F4FC801DF9151
:101C9000CF911F910F910C94DA0B8091B007909126
:101CA000B107E9CFDF91CF911F910F910895FF9276
:101CB0000F931F93CF93DF9399E0F92E8091A5079F
:101CC000811144C00E94B7062091A0073091A1075E
:101CD000821B930B90939F0780939E0789E0F82EB9
:101CE00020919E0730919F078091A2079091A307B2
:101CF0002115310509F04CC09093A1078093A007EE
:101D00008091A407282F30E099E0929FF001939FE3
:101D1000F00D1124EC53F84F408141118DC0882300
:101D200069F08150282F30E0929FF001939FF00DD1
:101D30001124EC53F84F908191117EC08093A40739
:101D4000DF91CF911F910F91FF900895F894E0914A
:101D5000AA07F091AB07C681D781CE010C960E94ED
:101D6000100C78948E010E5F1F4FC8010E94100C5A
:101D70008E899091A407981710F48093A4078F9DE3
:101D8000C0011124B8018C53984F0E94BA0B96CF12
:101D900001969093A3078093A207215031093093B5
:101DA0009F0720939E07892B81F48091B007909123
:101DB000B1072091AE073091AF073093B107209360
:101DC000B0079093AF078093AE07E091B007F09112
:101DD000B1072091A2073091A3078081882309F4DD
:101DE0007FCF0580F681E02DC681D7818A819B81D6
:101DF0002817390708F474CFF8948E010E5F1F4F2F
:101E0000C8010E94100C8C899D89892B21F0CE017C
:101E10000C960E94100C78948E899091A4079817C4
:101E200010F48093A4078F9DC0011124B8018C5336
:101E3000984F0E94BA0BC9CF8093A40749E0429FF4
:101E4000C001439F900D1124FC01EC53F84FA18178
:101E5000B28112960D90BC91A02DB283A1838953BB
:101E6000984FA817B90729F412968D919C919283E7
:101E7000818389E0829FF001839FF00D1124EC5350
:101E8000F84F0180F281E02D8681978190939D0724
:101E900080939C07DC01ED91FC91119757966C9112
:101EA000DF91CF911F910F91FF9009940F931F9392
:101EB000CF93DF93DC011596ED91FC91C681D7811C
:101EC0008E01045F1F4FC8010E94100CB80185EA03
:101ED00097E00E94BA0BE0919C07F0919D0781E08A
:101EE0002E899689291708F480E0DF91CF911F9100
:101EF0000F910895F894089578940895AF92BF9241
:101F0000CF92DF92EF92FF920F931F93FB01A801F4
:101F10000E2DB12CA12CD12CC12CF12CE12C30E0B8
:101F200020E0BF010E94800591E0813009F090E03F
:101F3000892F1F910F91FF90EF90DF90CF90BF906E
:101F4000AF900895E4EEF7E0118681E082872AEDF4
:101F500037E0378326839AE0908783870895E0EF00
:101F6000F7E0108281E08183128290E4938384837E
:101F7000089508950895E5EFF7E01082118281E059
:101F800082838383848315828683878392E090870C
:101F900011868287838793E0948715868687878753
:101FA00094E0908B118A828B838B95E0948B158AB9
:101FB000868B878B96E0908F118E828F838F08950A
:101FC000E5E7F8E080E895E2A0E0B0E08487958757
:101FD000A687B787168A81E198E0918B808B82E390
:101FE000828B23E438E0348B238B858B81E0878BD5
:101FF0000895EDE8F8E01082118281E0828308956F
:10200000E0E9F8E0148280E090EDA7E0B0E08083A2
:102010009183A283B38381E085830895611122C0F7
:1020200067E0869FF0011124EE5FFE4FA081B18131
:102030004C91868121E030E0B90102C0660F771F24
:102040008A95E2F7CB01809584238C93A281B3819A
:102050008C91968101C0220F9A95EAF7282B2C9338
:1020600080E00895613099F477E0879FF0011124B2
:10207000EE5FFE4FA081B1818C91968121E030E02E
:1020800001C0220F9A95EAF7822B8C93E9CF81E069
:102090000895CF93DF93A82FB0E096E0899FF001D9
:1020A0001124E05FFE4FC081D1811882C281D381AB
:1020B0001882C481D5811882662331F1613059F1CB
:1020C00086E08A9FF0018B9FF00D1124E05FFE4FA8
:1020D0000280F381E02D4083283019F1203419F17A
:1020E000213019F586E08A9FF0018B9FF00D1124B5
:1020F000E05FFE4F0480F581E02D8081282B208356
:1021000080E0DF91CF9108950190F081E02D8081F2
:1021100082608083D5CF0190F081E02D8081836043
:10212000F8CF22E0DFCF23E0DDCF20E0DBCF96E069
:10213000899FF0011124E05FFE4F0280F381E02DC2
:10214000608380E00895611122C067E0869FF001FE
:102150001124EA5EFE4FA081B1814C91868121E07D
:1021600030E0B90102C0660F771F8A95E2F7CB0114
:10217000809584238C93A281B3818C91968101C038
:10218000220F9A95EAF7282B2C9380E0089561306E
:1021900099F477E0879FF0011124EA5EFE4FA08159
:1021A000B1818C91968121E030E001C0220F9A9597
:1021B000EAF7822B8C93E9CF81E0089596E0899F1E
:1021C000F0011124EC5DFE4FA081B1818C919581CD
:1021D00021E030E001C0220F9A95EAF7822B8C9320
:1021E000A281B3818C919481892B8C9380E0089596
:1021F000A89584B7877F84BFE0E6F0E0808188619E
:102200008083108280E00895A89584B7877F84BF7B
:10221000E0E6F0E080818861808380819091D6073C
:10222000892B8860808380E0089541158AEF5807E4
:102230006105710509F443C0E0F440348FE15807AB
:102240006105710509F43FC038F4403A5F4061050B
:102250007105D9F180E02FC040388EE35807610541
:10226000710579F141155D476105710599F784E0C4
:1022700022C0411588EE580783E068077105D1F048
:1022800038F44115544F6140710521F786E013C0C1
:10229000411580ED580787E06807710539F0411551
:1022A000504A6F407105B1F689E001C088E088505E
:1022B000806201C087E08093D60780E0089585E0C2
:1022C000FACF83E0F8CF82E0F6CF81E0F4CF0C9430
:1022D0001511A895089510929A08109299081092D5
:1022E00098081092970880912A018F3F99F41092D4
:1022F0002A0184B18C6284B92A9A80E58CBD8CB5A0
:1023000080688CBD8CB582608CBD2A9810922B01A0
:1023100080E0089581E0089580912A018F3F91F433
:1023200081E080932A017093D8076093D707249A9D
:1023300080E48CBD8CB580688CBD8CB582608CBD12
:1023400080E0089581E0089580912B0181110CC0F7
:10235000509398084093970830939A0820939908CF
:10236000F90110826EBD089582E008951F920F92C8
:102370000FB60F9211242F933F934F935F936F9358
:102380007F938F939F93AF93BF93EF93FF9380912E
:102390002A0181112EC00DB406FE27C08EB5809390
:1023A0009B0810929B08E0919708F091980830974D
:1023B00019F080919B088083E0919908F0919A0828
:1023C00081E0808310922B01FF91EF91BF91AF913B
:1023D0009F918F917F916F915F914F913F912F913D
:1023E0000F900FBE0F901F9018958EB580939B088D
:1023F000DACF813049F76EB58091D7079091D80731
:102400000E946017E1CFECE7F0E080818F77808356
:10241000808180648083808180628083EAE7F0E04D
:1024200080818E7F808380818260808380818460D0
:10243000808380818068808380E0089590917A0015
:10244000892F807496FD15C090917C00907F9093A9
:102450007C0090917C00E62FF0E0E752F84F20815D
:10246000922B90937C0090917A00906490937A00E4
:10247000089582E008957093C5006093C400E1EC74
:10248000F0E0108280818061808380818860808319
:1024900080818068808386E08093C20080E0089518
:1024A0008091C00085FF04C06093C60080E008955D
:1024B00082E008951F920F920FB60F9211242F936E
:1024C0003F934F935F936F937F938F939F93AF93BC
:1024D000BF93EF93FF9341E066EC70E080E00E94D1
:1024E000B214FF91EF91BF91AF919F918F917F9126
:1024F0006F915F914F913F912F910F900FBE0F9071
:102500001F901895CF93DF9300D000D01F92CDB7C6
:10251000DEB785E0E1E3F1E0DE01119601900D9276
:102520008A95E1F745E0BE016F5F7F4F80E00E9432
:1025300060140E944F1360E081E00E948F136BE2F1
:1025400071E080E090E00E94AF130F900F900F9029
:102550000F900F90DF91CF9108950F931F93CF931A
:10256000DF93CDB7DEB761970FB6F894DEBF0FBE2D
:10257000CDBF8E010F5F1F4F8AE0F80111928A953F
:10258000E9F7198A86E0E6E3F1E0DE011B960190A7
:102590000D928A95E1F744E0BE01655F7F4F80E0D0
:1025A0000E946014AE014F5E5F4FB80180E00E9450
:1025B0002E15805D8F8742E0BE01615F7F4F80E016
:1025C0000E94601461960FB6F894DEBF0FBECDBFB7
:1025D000DF91CF911F910F910895CF93C82F682F4E
:1025E000617080E00E946E16C1FB662760F981E091
:1025F0000E946E16C2FB662760F982E00E946E168A
:10260000C3FB662760F983E00E946E1683E08A951B
:10261000F1F7000060E084E00E946E16000061E0C7
:1026200084E00E946E16000060E084E00E946E1656
:1026300081E28A95F1F70000CF910895CF93DF935F
:10264000C82FD62F60E086E00E946E1689EF90E0DA
:102650000197F1F700C000006D2F85E00E946E1613
:102660008C2F82958F700E94ED128C2F0E94ED129C
:1026700089EF90E00197F1F700C00000DF91CF9162
:10268000089560E00C941E1381E00E94411383ECD6
:1026900099E00197F1F700C0000080E0089560E044
:1026A00086E00E946E1689EF90E00197F1F700C076
:1026B00000006AE580E00E94381760E085E00E9433
:1026C0006E1660E084E00E946E160E948D0088E223
:1026D0000E94411384E694E00197F1F700C00000E6
:1026E00088E20E94411384E694E00197F1F700C06C
:1026F000000088E20E94411392E39A95F1F788E284
:102700000E9441130E9496008CE00E94411383E0D6
:102710008A95F1F700000E94441380E0089520E4B8
:10272000829FC00111248068860F0E94411380E0BF
:1027300008950F931F93CF93DF93EC018C01060F45
:10274000111DC017D10731F480E0DF91CF911F91A7
:102750000F91089561E089910E941E13F2CF0F93AB
:102760001F93CF93DF93CDB7DEB760970FB6F89482
:10277000DEBF0FBECDBF9F938F937F936F9388E68D
:1027800091E09F938F938E010F5F1F4F1F930F93C5
:102790000E944218F80101900020E9F73197BF012B
:1027A000601B710BC8010E9499130FB6F894DEBF2D
:1027B0000FBECDBF60960FB6F894DEBF0FBECDBF83
:1027C000DF91CF911F910F91089510929C08089569
:1027D000CF93DF930E94AF0FC0EFD7E02B814881EA
:1027E000698180E00E9449108C83DF91CF91089528
:1027F0001F93CF93DF93982F85E0989FE0011124DA
:10280000C051D84F8C81811107C0162F892F0E948B
:102810009710811101C01883DF91CF911F91089506
:10282000CF93DF930E94E00FC5E7D8E06B897C89E6
:102830004D898BE798E00E945A17688979894A89FF
:10284000CE010E945A172C853D854E855F8584E018
:10285000220F331F441F551F8A95D1F760E072E1A4
:102860008AE790E00E941018B9016150710980E078
:102870000E943B128F8BDF91CF910895CF93DF930E
:102880001F92CDB7DEB7198280918C088130A1F0FC
:10289000BE016F5F7F4F8BE798E00E94CB178111DD
:1028A0000BC069810E945012811106C070E060E087
:1028B0008BE798E00E94A9170F90DF91CF910895C0
:1028C000CF93DF93982F28E1289FE0011124CB5864
:1028D000D74F8F8981110AC082E08F8B929FC001F0
:1028E00011248558974F0E9481178F8BDF91CF91CC
:1028F0000895CF92DF92EF92FF920F931F93CF93A1
:10290000DF93C8E1C89FF0011124EB58F74FC78847
:10291000FA011082F1E0CF16D9F08A017B018C9F79
:10292000E0011124CB58D74FCE010E94EA17D12CD9
:10293000882321F085E0C82E0BC0D394B7016D0D1C
:10294000711DCE010E94A9178823B9F3F801D08226
:102950008C2DDF91CF911F910F91FF90EF90DF9021
:10296000CF90089598E1989FF0011124EB58F74F0C
:102970002789211103C0CF010C94811708950E946B
:10298000A20F6091EA077091EB074091EC0784EE8B
:1029900097E00E945A178091EE07811105C00E94AE
:1029A0006B118093EF0708958130E9F764EE77E0CB
:1029B00080E00E948C11F5CF8F929F92AF92BF92D0
:1029C000CF92DF92EF92FF920F931F93CF93DF93FB
:1029D000082F10E09CE0899FF0011124EC51F84F82
:1029E0009285BB24B39491111AC0B384B11017C05F
:1029F0006A01A82E82E083877B01C22FD0E0912C50
:102A0000812C80912C018C169D06B9F48CE0809F5E
:102A1000F001819FF00D1124EC51F84F13868B2D9E
:102A2000DF91CF911F910F91FF90EF90DF90CF90AA
:102A3000BF90AF909F908F900895882321F3F70166
:102A400061917F01A601480D591D2CE231E08A2DCC
:102A50000E94A411FFEF8F1A9F0AD3CFDF92EF924B
:102A6000FF920F931F93CF93DF93CCE0C89FF001A9
:102A70001124EC51F84F92859130F9F48A017B01D1
:102A8000EF01BA01CF010E94E017D12C882379F021
:102A9000DF91CF911F910F91FF90EF90DF900895FC
:102AA000B7016D0D711DCE010E94A917D394F801D5
:102AB0008081D816A8F380E0EBCF81E0E9CFCF93F7
:102AC000DF93CDE2D1E0688180E00E94A31089838A
:102AD0006A8181E00E94A3108B83DF91CF910895DA
:102AE00090E0FC01EE0FFF1FE35DFE4F21812111FD
:102AF00023C02081211120C027E0289FF001299FB9
:102B0000F00D1124EA5EFE4FA481B5812C9146811F
:102B100081E090E0042E02C0880F991F0A94E2F72A
:102B200030E08223932302C0959587954A95E2F77A
:102B3000FB01808380E0089581E0089590E0FC012E
:102B4000EE0FFF1FE35DFE4F2181211132C0208176
:102B5000213079F5611117C027E0289FF001299FE6
:102B6000F00D1124EA5EFE4FA281B3812C913681D3
:102B700081E090E001C0880F3A95EAF780958223C2
:102B80008C9380E008956130A1F427E0289FF00144
:102B9000299FF00D1124EA5EFE4FA281B3818C9132
:102BA000968121E030E001C0220F9A95EAF7822B4E
:102BB000E7CF81E0089590E0FC01EE0FFF1FE35D99
:102BC000FE4F2181211119C020812130B1F427E06D
:102BD000289FF001299FF00D1124EA5EFE4FA2818B
:102BE000B3818C91968121E030E001C0220F9A954B
:102BF000EAF782278C9380E0089581E0089590E0C1
:102C0000FC01EE0FFF1FEE0FFF1FEB50F84F23816B
:102C1000211132C022812617B9F0611117C027E0B7
:102C2000289FF001299FF00D1124EE5FFE4FA08137
:102C3000B1812C91368181E090E001C0880F3A95F6
:102C4000EAF7809582238C9380E008956130A1F4A7
:102C500027E0289FF001299FF00D1124EE5FFE4F21
:102C6000A081B1818C91968121E030E001C0220FDA
:102C70009A95EAF7822BE7CF81E0089590E0FC0176
:102C8000EE0FFF1FEE0FFF1FEB50F84F23812111B6
:102C900023C02281211120C027E0289FF001299F15
:102CA000F00D1124EE5FFE4FA481B5812C91468179
:102CB00081E090E0042E02C0880F991F0A94E2F789
:102CC00030E08223932302C0959587954A95E2F7D9
:102CD000FB01808380E0089581E00895CF93DF9326
:102CE00090E0FC01EE0FFF1FEE0FFF1FEB50F84FBF
:102CF0002381211140C022812130E9F5218126174D
:102D0000D9F061111DC027E0289FD001299FB00D87
:102D10001124AE5FBE4F1296CD91DC91139728819E
:102D200016963C9181E090E001C0880F3A95EAF751
:102D3000809582238883118280E0DF91CF9108956E
:102D40006130C9F427E0289FD001299FB00D1124DC
:102D5000AE5FBE4F1296CD91DC9113978881169687
:102D60009C9121E030E001C0220F9A95EAF7822B76
:102D700088836183E1CF81E0E0CF1F93CF93DF931E
:102D80000E94BB0FC5EFD7E010E06A81812F0E943F
:102D90000E108B838A81813021F46981812F0E94FA
:102DA0006E161F5F2496173081F7DF91CF911F9128
:102DB000089594E0899FF0011124EB50F84F93811E
:102DC00091110EC09281913059F4918161E0992363
:102DD00019F0913029F460E00E946E1680E00895A9
:102DE00081E008950895089581E00895CF93C82F54
:102DF0000E94F81097E0C99FF0011124E057F74FA7
:102E00001682CF910895CF93C82F0E94041197E0A6
:102E1000C99FF0011124E057F74F91E09683CF91BD
:102E200008950E940010409190085091910860917F
:102E300092087091930880E00E9467118091960833
:102E4000882319F080E00C94031708950C94151151
:102E500080919608882319F080E00C9469110895F8
:102E60000E94F90F80E00E94DE1080938F08089581
:102E700090E0FC01EE0FFF1FE80FF91FE357F74F3B
:102E80008281811105C070E0808190E00E94F8137A
:102E90000895CF93DF93EC014A8150E070E060E049
:102EA000888199810E943B181B821C821D82DF91C0
:102EB000CF910895FC017183608342830C9449177C
:102EC000FC0182819581891B990B18161906BCF4A7
:102ED000A48180819181A80FB92FB11D6C93858148
:102EE0008F5F8583848122812150330B82171306E3
:102EF0001CF0148280E008958F5F8483FBCF84E010
:102F00000895EF92FF920F931F93CF93DF93FC01ED
:102F100022813581231B330BC42FD0E02C173D07B2
:102F2000B4F07C018B01C60FD71F0C171D0741F4AD
:102F300080E0DF91CF911F910F91FF90EF90089566
:102F4000F80161918F01C7010E946017EECF84E004
:102F5000F0CFFC0185818823E1F06115710549F00E
:102F6000A38180819181A80FB92FB11D8C91DB01C4
:102F70008C93858181508583838122812150330BFD
:102F8000821713061CF0138280E008958F5F8383FD
:102F9000FBCF85E00895DC0115968C911597882369
:102FA00069F01396EC9113978D919C91E80FF92F8E
:102FB000F11D8081FB01808380E0089585E0089504
:102FC000FC018581882321F0FB01808380E0089546
:102FD00085E0089521E0FC018581811120E0822FA8
:102FE000089582E0E82E0DE111E020E030E04AE0B3
:102FF0006CE371E083E590E00E947E0FEE24E394A1
:103000000EE610E020E030E048EC6FE471E081E78C
:1030100090E00E947E0F0E9496000E947A06FFCFE9
:10302000A1E21A2EAA1BBB1BFD010DC0AA1FBB1FCC
:10303000EE1FFF1FA217B307E407F50720F0A21B3E
:10304000B30BE40BF50B661F771F881F991F1A94AB
:1030500069F760957095809590959B01AC01BD01D5
:10306000CF010895FB01DC0102C001900D92415097
:103070005040D8F70895DC0101C06D934150504095
:10308000E0F70895AEE0B0E0E8E4F8E10C94F11A5E
:103090000D891E8986E08C831A8309838FEF9FE751
:1030A0009E838D83AE01475E5F4F6F89788DCE0121
:1030B00001960E9465182F813885020F131FF801B1
:1030C00010822E96E4E00C940D1BABE0B0E0EBE632
:1030D000F8E10C94E31A7C013B018A01FC011782A0
:1030E0001682838181FFC8C1CE0101965C01F70180
:1030F0009381F30193FD859193FF81913F01882393
:1031000009F453C1853239F493FD859193FF819180
:103110003F01853229F4B70190E00E94551AE7CFAC
:10312000912C212C312CFFE1F31538F08B3211F169
:1031300090F4803209F1833229F137FC3CC020ED54
:10314000280F2A3050F536FE20C08AE0989E200DC8
:103150001124922E06C08D3291F0803371F768945D
:1031600030F8F30193FD859193FF81913F01811127
:10317000DACF21C0689431F8689432F8F2CF6894BD
:1031800033F8EFCF689434F8ECCFEAE02E9E200DB0
:103190001124222E689435F8E4CF8E3229F436FCBF
:1031A00004C1689436F8DDCF8C3619F4689437F88A
:1031B000D8CF8836B1F2982F9F7D95549330E0F0A8
:1031C0008336A1F18337C1F1833509F063C028014B
:1031D000F2E04F0E511CF801C080D180692D70E0E3
:1031E00036FC02C06FEF7FEFC6010E943F1A4C0110
:1031F000689437F882010AC00C5F1F4FFFE3F98320
:1032000088248394912C6501E89437F833FE2DC00F
:10321000522C8114910471F5552009F468CFB7013F
:1032200080E290E00E94551A5A94F6CFF80180810E
:1032300089830E5F1F4FE4CF2801F2E04F0E511C2F
:10324000F801C080D180692D70E036FC02C06FEFBC
:103250007FEFC6010E944A1A4C018201D5CFB70107
:1032600080E290E00E94551A2A942814190409F06B
:10327000B0F7CECFF60137FC859137FE81916F0113
:10328000B70190E00E94551A51105A94F1E08F1A3C
:103290009108BFCF843619F0893609F077C0F8015C
:1032A00037FE6BC060817181828193810C5F1F4FFB
:1032B000F32DFF763F2E97FF09C09095809570956E
:1032C00061957F4F8F4F9F4F689437F82AE030E029
:1032D000A5010E94851AC82ECA188C2C432C36FED4
:1032E0000CC0E89440F8C91440F434FE05C032FC28
:1032F00003C0F32DFE7E4F2E892C44FE95C0FE01A7
:10330000EC0DF11D8081803309F087C0242D297ECA
:10331000422E842D8870582E43FC95C040FE8FC0ED
:103320009C2C821418F42C0C922C981844FE91C0FA
:10333000B70180E390E00E94551A42FE09C088E779
:1033400090E041FE02C088E590E0B7010E94551A66
:10335000C91408F48AC0CA94D12C9FEFC91AD90A9B
:10336000CA0CDB1CF60182916F01B70190E00E944C
:10337000551AAC14BD04B1F74FCF60817181072E8F
:10338000000C880B990B0E5F1F4F92CFD32CE89443
:10339000D4F82AE030E0853739F1232D297FD22E69
:1033A0008F3601F148F48835A9F0F70186819781BD
:1033B0002B96E2E10C94FF1A803749F08837A9F781
:1033C000D4FE02C06894D2F820E130E00DC06894C9
:1033D000D4F8F6CF34FE03C0822F8660D82E20E1C9
:1033E00032E002C028E030E0F801D7FE0FC0608173
:1033F0007181828193810C5F1F4FA5010E94851A04
:10340000C82ECA183D2CE89437F867CF60817181C7
:1034100090E080E00E5F1F4FF0CF42FC02C083942B
:1034200078CF8394839475CF842D867809F471CFF7
:10343000F6CFB70180E290E00E94551A839482147F
:10344000C0F3512C73CF522C5818821408F46ECF4D
:10345000F8CF842D867809F47BCF8BE241FE80E2A1
:1034600047FC8DE2B70190E071CFB70180E390E0B7
:103470000E94551A9A946CCF8FEF9FEF99CFFC0161
:103480000590615070400110D8F7809590958E0F8F
:103490009F1F0895FC016150704001900110D8F702
:1034A000809590958E0F9F1F08950F931F93CF9334
:1034B000DF93182F092FEB018B8181FD09C01FEFCE
:1034C0000FEF812F902FDF91CF911F910F910895D2
:1034D00082FF14C02E813F818C819D81281739077E
:1034E0003CF4E881F981CF010196998388831083A8
:1034F0008E819F8101969F838E83E3CFE885F98536
:10350000812F0995892BA1F3DACFFA01AA27283058
:1035100051F1203181F1E8946F936E7F6E5F7F4FA0
:103520008F4F9F4FAF4FB1E03ED0B4E03CD0670F1C
:10353000781F891F9A1FA11D680F791F8A1F911D6F
:10354000A11D6A0F711D811D911DA11D20D009F4BF
:1035500068943F912AE0269F11243019305D319301
:10356000DEF6CF010895462F4770405D4193B3E0EA
:103570000FD0C9F7F6CF462F4F70405D4A3318F091
:10358000495D31FD4052419302D0A9F7EACFB4E042
:10359000A6959795879577956795BA95C9F70097FA
:1035A0006105710508959B01AC010A2E069457959B
:1035B000479537952795BA95C9F7620F731F841FF2
:1035C000951FA01D08952F923F924F925F926F9288
:1035D0007F928F929F92AF92BF92CF92DF92EF92A3
:1035E000FF920F931F93CF93DF93CDB7DEB7CA1B24
:1035F000DB0B0FB6F894DEBF0FBECDBF09942A884F
:10360000398848885F846E847D848C849B84AA84F6
:10361000B984C884DF80EE80FD800C811B81AA8183
:10362000B981CE0FD11D0FB6F894DEBF0FBECDBF4E
:08363000ED010895F894FFCFAD
:10363800FFFF270028002600032700280026000295
:10364800440047004500240025002300002A002BE1
:10365800002900042A0044008006FF01010101003E
:1036680001494E49540A5245543D580A4F535F5434
:1036780061736B5F31306D735F5072696F32004FE9
:10368800535F5461736B5F3230306D735F50726992
:0C3698006F310049444C450025640000DF
:00000001FF
